{
  "address": "0xA4df5368e9A3d459273C896bdf61DD9D22c65289",
  "abi": [
    {
      "inputs": [],
      "stateMutability": "nonpayable",
      "type": "constructor"
    },
    {
      "anonymous": false,
      "inputs": [
        {
          "indexed": true,
          "internalType": "address",
          "name": "owner",
          "type": "address"
        },
        {
          "indexed": true,
          "internalType": "address",
          "name": "approved",
          "type": "address"
        },
        {
          "indexed": true,
          "internalType": "uint256",
          "name": "tokenId",
          "type": "uint256"
        }
      ],
      "name": "Approval",
      "type": "event"
    },
    {
      "anonymous": false,
      "inputs": [
        {
          "indexed": true,
          "internalType": "address",
          "name": "owner",
          "type": "address"
        },
        {
          "indexed": true,
          "internalType": "address",
          "name": "operator",
          "type": "address"
        },
        {
          "indexed": false,
          "internalType": "bool",
          "name": "approved",
          "type": "bool"
        }
      ],
      "name": "ApprovalForAll",
      "type": "event"
    },
    {
      "anonymous": false,
      "inputs": [
        {
          "indexed": true,
          "internalType": "bytes32",
          "name": "role",
          "type": "bytes32"
        },
        {
          "indexed": true,
          "internalType": "bytes32",
          "name": "previousAdminRole",
          "type": "bytes32"
        },
        {
          "indexed": true,
          "internalType": "bytes32",
          "name": "newAdminRole",
          "type": "bytes32"
        }
      ],
      "name": "RoleAdminChanged",
      "type": "event"
    },
    {
      "anonymous": false,
      "inputs": [
        {
          "indexed": true,
          "internalType": "bytes32",
          "name": "role",
          "type": "bytes32"
        },
        {
          "indexed": true,
          "internalType": "address",
          "name": "account",
          "type": "address"
        },
        {
          "indexed": true,
          "internalType": "address",
          "name": "sender",
          "type": "address"
        }
      ],
      "name": "RoleGranted",
      "type": "event"
    },
    {
      "anonymous": false,
      "inputs": [
        {
          "indexed": true,
          "internalType": "bytes32",
          "name": "role",
          "type": "bytes32"
        },
        {
          "indexed": true,
          "internalType": "address",
          "name": "account",
          "type": "address"
        },
        {
          "indexed": true,
          "internalType": "address",
          "name": "sender",
          "type": "address"
        }
      ],
      "name": "RoleRevoked",
      "type": "event"
    },
    {
      "anonymous": false,
      "inputs": [
        {
          "indexed": true,
          "internalType": "address",
          "name": "from",
          "type": "address"
        },
        {
          "indexed": true,
          "internalType": "address",
          "name": "to",
          "type": "address"
        },
        {
          "indexed": true,
          "internalType": "uint256",
          "name": "tokenId",
          "type": "uint256"
        }
      ],
      "name": "Transfer",
      "type": "event"
    },
    {
      "inputs": [],
      "name": "ADMIN",
      "outputs": [
        {
          "internalType": "bytes32",
          "name": "",
          "type": "bytes32"
        }
      ],
      "stateMutability": "view",
      "type": "function"
    },
    {
      "inputs": [],
      "name": "DEFAULT_ADMIN_ROLE",
      "outputs": [
        {
          "internalType": "bytes32",
          "name": "",
          "type": "bytes32"
        }
      ],
      "stateMutability": "view",
      "type": "function"
    },
    {
      "inputs": [
        {
          "internalType": "address",
          "name": "to",
          "type": "address"
        },
        {
          "internalType": "uint256",
          "name": "tokenId",
          "type": "uint256"
        }
      ],
      "name": "approve",
      "outputs": [],
      "stateMutability": "nonpayable",
      "type": "function"
    },
    {
      "inputs": [
        {
          "internalType": "address",
          "name": "owner",
          "type": "address"
        }
      ],
      "name": "balanceOf",
      "outputs": [
        {
          "internalType": "uint256",
          "name": "",
          "type": "uint256"
        }
      ],
      "stateMutability": "view",
      "type": "function"
    },
    {
      "inputs": [
        {
          "internalType": "uint256",
          "name": "tokenId",
          "type": "uint256"
        }
      ],
      "name": "burn",
      "outputs": [],
      "stateMutability": "nonpayable",
      "type": "function"
    },
    {
      "inputs": [
        {
          "internalType": "uint256[]",
          "name": "tokenIds",
          "type": "uint256[]"
        }
      ],
      "name": "decrypt",
      "outputs": [],
      "stateMutability": "payable",
      "type": "function"
    },
    {
      "inputs": [
        {
          "internalType": "uint256",
          "name": "tokenId",
          "type": "uint256"
        }
      ],
      "name": "getApproved",
      "outputs": [
        {
          "internalType": "address",
          "name": "",
          "type": "address"
        }
      ],
      "stateMutability": "view",
      "type": "function"
    },
    {
      "inputs": [
        {
          "internalType": "uint256",
          "name": "tokenId",
          "type": "uint256"
        }
      ],
      "name": "getIsTokenDecrypted",
      "outputs": [
        {
          "internalType": "bool",
          "name": "",
          "type": "bool"
        }
      ],
      "stateMutability": "view",
      "type": "function"
    },
    {
      "inputs": [
        {
          "internalType": "bytes32",
          "name": "role",
          "type": "bytes32"
        }
      ],
      "name": "getRoleAdmin",
      "outputs": [
        {
          "internalType": "bytes32",
          "name": "",
          "type": "bytes32"
        }
      ],
      "stateMutability": "view",
      "type": "function"
    },
    {
      "inputs": [
        {
          "internalType": "uint256",
          "name": "tokenId",
          "type": "uint256"
        }
      ],
      "name": "getTokenInfo",
      "outputs": [
        {
          "components": [
            {
              "internalType": "uint256",
              "name": "id",
              "type": "uint256"
            },
            {
              "internalType": "string",
              "name": "cid",
              "type": "string"
            },
            {
              "internalType": "address",
              "name": "owner",
              "type": "address"
            },
            {
              "internalType": "bool",
              "name": "isDecrypted",
              "type": "bool"
            },
            {
              "internalType": "uint256",
              "name": "price",
              "type": "uint256"
            }
          ],
          "internalType": "struct Basic_FEVM_DALN.TokenInfo",
          "name": "",
          "type": "tuple"
        }
      ],
      "stateMutability": "view",
      "type": "function"
    },
    {
      "inputs": [
        {
          "internalType": "uint256",
          "name": "_cursor",
          "type": "uint256"
        },
        {
          "internalType": "uint256",
          "name": "_pageSize",
          "type": "uint256"
        }
      ],
      "name": "getTokenInfos",
      "outputs": [
        {
          "components": [
            {
              "internalType": "uint256",
              "name": "id",
              "type": "uint256"
            },
            {
              "internalType": "string",
              "name": "cid",
              "type": "string"
            },
            {
              "internalType": "address",
              "name": "owner",
              "type": "address"
            },
            {
              "internalType": "bool",
              "name": "isDecrypted",
              "type": "bool"
            },
            {
              "internalType": "uint256",
              "name": "price",
              "type": "uint256"
            }
          ],
          "internalType": "struct Basic_FEVM_DALN.TokenInfo[]",
          "name": "",
          "type": "tuple[]"
        },
        {
          "internalType": "uint256",
          "name": "_nextCursor",
          "type": "uint256"
        },
        {
          "internalType": "bool",
          "name": "_hasMore",
          "type": "bool"
        }
      ],
      "stateMutability": "view",
      "type": "function"
    },
    {
      "inputs": [
        {
          "internalType": "bytes32",
          "name": "role",
          "type": "bytes32"
        },
        {
          "internalType": "address",
          "name": "account",
          "type": "address"
        }
      ],
      "name": "grantRole",
      "outputs": [],
      "stateMutability": "nonpayable",
      "type": "function"
    },
    {
      "inputs": [
        {
          "internalType": "bytes32",
          "name": "role",
          "type": "bytes32"
        },
        {
          "internalType": "address",
          "name": "account",
          "type": "address"
        }
      ],
      "name": "hasRole",
      "outputs": [
        {
          "internalType": "bool",
          "name": "",
          "type": "bool"
        }
      ],
      "stateMutability": "view",
      "type": "function"
    },
    {
      "inputs": [
        {
          "internalType": "address",
          "name": "account",
          "type": "address"
        }
      ],
      "name": "isAdmin",
      "outputs": [
        {
          "internalType": "bool",
          "name": "",
          "type": "bool"
        }
      ],
      "stateMutability": "view",
      "type": "function"
    },
    {
      "inputs": [
        {
          "internalType": "address",
          "name": "owner",
          "type": "address"
        },
        {
          "internalType": "address",
          "name": "operator",
          "type": "address"
        }
      ],
      "name": "isApprovedForAll",
      "outputs": [
        {
          "internalType": "bool",
          "name": "",
          "type": "bool"
        }
      ],
      "stateMutability": "view",
      "type": "function"
    },
    {
      "inputs": [],
      "name": "name",
      "outputs": [
        {
          "internalType": "string",
          "name": "",
          "type": "string"
        }
      ],
      "stateMutability": "view",
      "type": "function"
    },
    {
      "inputs": [
        {
          "internalType": "uint256",
          "name": "tokenId",
          "type": "uint256"
        }
      ],
      "name": "ownerOf",
      "outputs": [
        {
          "internalType": "address",
          "name": "",
          "type": "address"
        }
      ],
      "stateMutability": "view",
      "type": "function"
    },
    {
      "inputs": [
        {
          "internalType": "bytes32",
          "name": "role",
          "type": "bytes32"
        },
        {
          "internalType": "address",
          "name": "account",
          "type": "address"
        }
      ],
      "name": "renounceRole",
      "outputs": [],
      "stateMutability": "nonpayable",
      "type": "function"
    },
    {
      "inputs": [
        {
          "internalType": "bytes32",
          "name": "role",
          "type": "bytes32"
        },
        {
          "internalType": "address",
          "name": "account",
          "type": "address"
        }
      ],
      "name": "revokeRole",
      "outputs": [],
      "stateMutability": "nonpayable",
      "type": "function"
    },
    {
      "inputs": [
        {
          "internalType": "string",
          "name": "cid",
          "type": "string"
        }
      ],
      "name": "safeMint",
      "outputs": [],
      "stateMutability": "nonpayable",
      "type": "function"
    },
    {
      "inputs": [
        {
          "internalType": "address",
          "name": "from",
          "type": "address"
        },
        {
          "internalType": "address",
          "name": "to",
          "type": "address"
        },
        {
          "internalType": "uint256",
          "name": "tokenId",
          "type": "uint256"
        }
      ],
      "name": "safeTransferFrom",
      "outputs": [],
      "stateMutability": "nonpayable",
      "type": "function"
    },
    {
      "inputs": [
        {
          "internalType": "address",
          "name": "from",
          "type": "address"
        },
        {
          "internalType": "address",
          "name": "to",
          "type": "address"
        },
        {
          "internalType": "uint256",
          "name": "tokenId",
          "type": "uint256"
        },
        {
          "internalType": "bytes",
          "name": "data",
          "type": "bytes"
        }
      ],
      "name": "safeTransferFrom",
      "outputs": [],
      "stateMutability": "nonpayable",
      "type": "function"
    },
    {
      "inputs": [
        {
          "internalType": "address",
          "name": "operator",
          "type": "address"
        },
        {
          "internalType": "bool",
          "name": "approved",
          "type": "bool"
        }
      ],
      "name": "setApprovalForAll",
      "outputs": [],
      "stateMutability": "nonpayable",
      "type": "function"
    },
    {
      "inputs": [
        {
          "internalType": "bytes4",
          "name": "interfaceId",
          "type": "bytes4"
        }
      ],
      "name": "supportsInterface",
      "outputs": [
        {
          "internalType": "bool",
          "name": "",
          "type": "bool"
        }
      ],
      "stateMutability": "view",
      "type": "function"
    },
    {
      "inputs": [],
      "name": "symbol",
      "outputs": [
        {
          "internalType": "string",
          "name": "",
          "type": "string"
        }
      ],
      "stateMutability": "view",
      "type": "function"
    },
    {
      "inputs": [
        {
          "internalType": "uint256",
          "name": "index",
          "type": "uint256"
        }
      ],
      "name": "tokenByIndex",
      "outputs": [
        {
          "internalType": "uint256",
          "name": "",
          "type": "uint256"
        }
      ],
      "stateMutability": "view",
      "type": "function"
    },
    {
      "inputs": [
        {
          "internalType": "address",
          "name": "owner",
          "type": "address"
        },
        {
          "internalType": "uint256",
          "name": "index",
          "type": "uint256"
        }
      ],
      "name": "tokenOfOwnerByIndex",
      "outputs": [
        {
          "internalType": "uint256",
          "name": "",
          "type": "uint256"
        }
      ],
      "stateMutability": "view",
      "type": "function"
    },
    {
      "inputs": [
        {
          "internalType": "uint256",
          "name": "tokenId",
          "type": "uint256"
        }
      ],
      "name": "tokenURI",
      "outputs": [
        {
          "internalType": "string",
          "name": "",
          "type": "string"
        }
      ],
      "stateMutability": "view",
      "type": "function"
    },
    {
      "inputs": [],
      "name": "totalSupply",
      "outputs": [
        {
          "internalType": "uint256",
          "name": "",
          "type": "uint256"
        }
      ],
      "stateMutability": "view",
      "type": "function"
    },
    {
      "inputs": [
        {
          "internalType": "address",
          "name": "from",
          "type": "address"
        },
        {
          "internalType": "address",
          "name": "to",
          "type": "address"
        },
        {
          "internalType": "uint256",
          "name": "tokenId",
          "type": "uint256"
        }
      ],
      "name": "transferFrom",
      "outputs": [],
      "stateMutability": "nonpayable",
      "type": "function"
    }
  ],
  "transactionHash": "0x540b10f87e91d10325f52886ef9287c13373755d49568c017bff25b306da280c",
  "args": [],
  "numDeployments": 1,
  "solcInputHash": "471060e041569804e98d077638e959af",
  "bytecode": "0x60806040523480156200001157600080fd5b506040518060400160405280600f81526020017f42617369635f4645564d5f44414c4e00000000000000000000000000000000008152506040518060400160405280600481526020017f44414c4e0000000000000000000000000000000000000000000000000000000081525081600090816200008f9190620004c3565b508060019081620000a19190620004c3565b505050620000c86000801b620000bc620000ce60201b60201c565b620000d660201b60201c565b620005aa565b600033905090565b620000e88282620000ec60201b60201c565b5050565b620000fe8282620001de60201b60201c565b620001da576001600a600084815260200190815260200160002060000160008373ffffffffffffffffffffffffffffffffffffffff1673ffffffffffffffffffffffffffffffffffffffff16815260200190815260200160002060006101000a81548160ff0219169083151502179055506200017f620000ce60201b60201c565b73ffffffffffffffffffffffffffffffffffffffff168173ffffffffffffffffffffffffffffffffffffffff16837f2f8788117e7eff1d82e926ec794901d17c78024a50270940304540a733656f0d60405160405180910390a45b5050565b6000600a600084815260200190815260200160002060000160008373ffffffffffffffffffffffffffffffffffffffff1673ffffffffffffffffffffffffffffffffffffffff16815260200190815260200160002060009054906101000a900460ff16905092915050565b600081519050919050565b7f4e487b7100000000000000000000000000000000000000000000000000000000600052604160045260246000fd5b7f4e487b7100000000000000000000000000000000000000000000000000000000600052602260045260246000fd5b60006002820490506001821680620002cb57607f821691505b602082108103620002e157620002e062000283565b5b50919050565b60008190508160005260206000209050919050565b60006020601f8301049050919050565b600082821b905092915050565b6000600883026200034b7fffffffffffffffffffffffffffffffffffffffffffffffffffffffffffffffff826200030c565b6200035786836200030c565b95508019841693508086168417925050509392505050565b6000819050919050565b6000819050919050565b6000620003a46200039e62000398846200036f565b62000379565b6200036f565b9050919050565b6000819050919050565b620003c08362000383565b620003d8620003cf82620003ab565b84845462000319565b825550505050565b600090565b620003ef620003e0565b620003fc818484620003b5565b505050565b5b81811015620004245762000418600082620003e5565b60018101905062000402565b5050565b601f82111562000473576200043d81620002e7565b6200044884620002fc565b8101602085101562000458578190505b620004706200046785620002fc565b83018262000401565b50505b505050565b600082821c905092915050565b6000620004986000198460080262000478565b1980831691505092915050565b6000620004b3838362000485565b9150826002028217905092915050565b620004ce8262000249565b67ffffffffffffffff811115620004ea57620004e962000254565b5b620004f68254620002b2565b6200050382828562000428565b600060209050601f8311600181146200053b576000841562000526578287015190505b620005328582620004a5565b865550620005a2565b601f1984166200054b86620002e7565b60005b8281101562000575578489015182556001820191506020850194506020810190506200054e565b8683101562000595578489015162000591601f89168262000485565b8355505b6001600288020188555050505b505050505050565b6157b180620005ba6000396000f3fe6080604052600436106101cd5760003560e01c80634f6ccce7116100f7578063a217fddf11610095578063c87b56dd11610064578063c87b56dd146106d7578063cbfa57b814610714578063d547741f14610751578063e985e9c51461077a576101cd565b8063a217fddf1461061b578063a22cb46514610646578063b88d4fde1461066f578063c32fc43c14610698576101cd565b806370a08231116100d157806370a08231146105395780638c7a63ae1461057657806391d14854146105b357806395d89b41146105f0576101cd565b80634f6ccce7146104965780636352211e146104d3578063695850fb14610510576101cd565b806324d7806c1161016f57806336568abe1161013e57806336568abe146103ff5780633960f7871461042857806342842e0e1461044457806342966c681461046d576101cd565b806324d7806c146103315780632a0acc6a1461036e5780632f2ff15d146103995780632f745c59146103c2576101cd565b8063095ea7b3116101ab578063095ea7b31461027757806318160ddd146102a057806323b872dd146102cb578063248a9ca3146102f4576101cd565b806301ffc9a7146101d257806306fdde031461020f578063081812fc1461023a575b600080fd5b3480156101de57600080fd5b506101f960048036038101906101f4919061393c565b6107b7565b6040516102069190613984565b60405180910390f35b34801561021b57600080fd5b506102246107c9565b6040516102319190613a2f565b60405180910390f35b34801561024657600080fd5b50610261600480360381019061025c9190613a87565b61085b565b60405161026e9190613af5565b60405180910390f35b34801561028357600080fd5b5061029e60048036038101906102999190613b3c565b6108a1565b005b3480156102ac57600080fd5b506102b56109b8565b6040516102c29190613b8b565b60405180910390f35b3480156102d757600080fd5b506102f260048036038101906102ed9190613ba6565b6109c5565b005b34801561030057600080fd5b5061031b60048036038101906103169190613c2f565b610a25565b6040516103289190613c6b565b60405180910390f35b34801561033d57600080fd5b5061035860048036038101906103539190613c86565b610a45565b6040516103659190613984565b60405180910390f35b34801561037a57600080fd5b50610383610a8c565b6040516103909190613c6b565b60405180910390f35b3480156103a557600080fd5b506103c060048036038101906103bb9190613cb3565b610ab0565b005b3480156103ce57600080fd5b506103e960048036038101906103e49190613b3c565b610ad1565b6040516103f69190613b8b565b60405180910390f35b34801561040b57600080fd5b5061042660048036038101906104219190613cb3565b610b76565b005b610442600480360381019061043d9190613e3b565b610bf9565b005b34801561045057600080fd5b5061046b60048036038101906104669190613ba6565b610d5a565b005b34801561047957600080fd5b50610494600480360381019061048f9190613a87565b610d7a565b005b3480156104a257600080fd5b506104bd60048036038101906104b89190613a87565b610e51565b6040516104ca9190613b8b565b60405180910390f35b3480156104df57600080fd5b506104fa60048036038101906104f59190613a87565b610ec2565b6040516105079190613af5565b60405180910390f35b34801561051c57600080fd5b5061053760048036038101906105329190613f39565b610f48565b005b34801561054557600080fd5b50610560600480360381019061055b9190613c86565b6110c7565b60405161056d9190613b8b565b60405180910390f35b34801561058257600080fd5b5061059d60048036038101906105989190613a87565b61117e565b6040516105aa919061406f565b60405180910390f35b3480156105bf57600080fd5b506105da60048036038101906105d59190613cb3565b61130a565b6040516105e79190613984565b60405180910390f35b3480156105fc57600080fd5b50610605611375565b6040516106129190613a2f565b60405180910390f35b34801561062757600080fd5b50610630611407565b60405161063d9190613c6b565b60405180910390f35b34801561065257600080fd5b5061066d600480360381019061066891906140bd565b61140e565b005b34801561067b57600080fd5b506106966004803603810190610691919061419e565b611424565b005b3480156106a457600080fd5b506106bf60048036038101906106ba9190614221565b611486565b6040516106ce93929190614399565b60405180910390f35b3480156106e357600080fd5b506106fe60048036038101906106f99190613a87565b611896565b60405161070b9190613a2f565b60405180910390f35b34801561072057600080fd5b5061073b60048036038101906107369190613a87565b6118fe565b6040516107489190613984565b60405180910390f35b34801561075d57600080fd5b5061077860048036038101906107739190613cb3565b611942565b005b34801561078657600080fd5b506107a1600480360381019061079c91906143d7565b611963565b6040516107ae9190613984565b60405180910390f35b60006107c2826119f7565b9050919050565b6060600080546107d890614446565b80601f016020809104026020016040519081016040528092919081815260200182805461080490614446565b80156108515780601f1061082657610100808354040283529160200191610851565b820191906000526020600020905b81548152906001019060200180831161083457829003601f168201915b5050505050905090565b600061086682611a71565b6004600083815260200190815260200160002060009054906101000a900473ffffffffffffffffffffffffffffffffffffffff169050919050565b60006108ac82610ec2565b90508073ffffffffffffffffffffffffffffffffffffffff168373ffffffffffffffffffffffffffffffffffffffff160361091c576040517f08c379a0000000000000000000000000000000000000000000000000000000008152600401610913906144e9565b60405180910390fd5b8073ffffffffffffffffffffffffffffffffffffffff1661093b611abc565b73ffffffffffffffffffffffffffffffffffffffff16148061096a575061096981610964611abc565b611963565b5b6109a9576040517f08c379a00000000000000000000000000000000000000000000000000000000081526004016109a09061457b565b60405180910390fd5b6109b38383611ac4565b505050565b6000600880549050905090565b6109d66109d0611abc565b82611b7d565b610a15576040517f08c379a0000000000000000000000000000000000000000000000000000000008152600401610a0c9061460d565b60405180910390fd5b610a20838383611c12565b505050565b6000600a6000838152602001908152602001600020600101549050919050565b6000610a717fdf8b4c520ffe197c5343c6f5aec59570151ef9a492f2c624fd45ddde6135ec428361130a565b80610a855750610a846000801b8361130a565b5b9050919050565b7fdf8b4c520ffe197c5343c6f5aec59570151ef9a492f2c624fd45ddde6135ec4281565b610ab982610a25565b610ac281611f0b565b610acc8383611f1f565b505050565b6000610adc836110c7565b8210610b1d576040517f08c379a0000000000000000000000000000000000000000000000000000000008152600401610b149061469f565b60405180910390fd5b600660008473ffffffffffffffffffffffffffffffffffffffff1673ffffffffffffffffffffffffffffffffffffffff168152602001908152602001600020600083815260200190815260200160002054905092915050565b610b7e611abc565b73ffffffffffffffffffffffffffffffffffffffff168173ffffffffffffffffffffffffffffffffffffffff1614610beb576040517f08c379a0000000000000000000000000000000000000000000000000000000008152600401610be290614731565b60405180910390fd5b610bf58282612000565b5050565b6000805b8251811015610d09576000838281518110610c1b57610c1a614751565b5b60200260200101519050610c2e816120e2565b610c6d576040517f08c379a0000000000000000000000000000000000000000000000000000000008152600401610c64906147cc565b60405180910390fd5b600d600082815260200190815260200160002060020160149054906101000a900460ff1615610cd1576040517f08c379a0000000000000000000000000000000000000000000000000000000008152600401610cc890614838565b60405180910390fd5b600d60008281526020019081526020016000206003015483610cf39190614887565b9250508080610d01906148bb565b915050610bfd565b5080341015610d4d576040517f08c379a0000000000000000000000000000000000000000000000000000000008152600401610d449061494f565b60405180910390fd5b610d5682612123565b5050565b610d7583838360405180602001604052806000815250611424565b505050565b610d8b610d85611abc565b82611b7d565b610dca576040517f08c379a0000000000000000000000000000000000000000000000000000000008152600401610dc19061460d565b60405180910390fd5b610dd4600c6121b8565b600d6000828152602001908152602001600020600080820160009055600182016000610e00919061382c565b6002820160006101000a81549073ffffffffffffffffffffffffffffffffffffffff02191690556002820160146101000a81549060ff021916905560038201600090555050610e4e81612214565b50565b6000610e5b6109b8565b8210610e9c576040517f08c379a0000000000000000000000000000000000000000000000000000000008152600401610e93906149e1565b60405180910390fd5b60088281548110610eb057610eaf614751565b5b90600052602060002001549050919050565b600080610ece83612362565b9050600073ffffffffffffffffffffffffffffffffffffffff168173ffffffffffffffffffffffffffffffffffffffff1603610f3f576040517f08c379a0000000000000000000000000000000000000000000000000000000008152600401610f3690614a4d565b60405180910390fd5b80915050919050565b6000610f5a610f55611abc565b6110c7565b14610f9a576040517f08c379a0000000000000000000000000000000000000000000000000000000008152600401610f9190614ab9565b60405180910390fd5b6000610fa6600b61239f565b90506040518060a00160405280828152602001838152602001610fc7611abc565b73ffffffffffffffffffffffffffffffffffffffff1681526020016000151581526020016709fdf42f6e480000815250600d60008381526020019081526020016000206000820151816000015560208201518160010190816110299190614c85565b5060408201518160020160006101000a81548173ffffffffffffffffffffffffffffffffffffffff021916908373ffffffffffffffffffffffffffffffffffffffff16021790555060608201518160020160146101000a81548160ff021916908315150217905550608082015181600301559050506110a8600b6123ad565b6110b2600c6123ad565b6110c36110bd611abc565b826123c3565b5050565b60008073ffffffffffffffffffffffffffffffffffffffff168273ffffffffffffffffffffffffffffffffffffffff1603611137576040517f08c379a000000000000000000000000000000000000000000000000000000000815260040161112e90614dc9565b60405180910390fd5b600360008373ffffffffffffffffffffffffffffffffffffffff1673ffffffffffffffffffffffffffffffffffffffff168152602001908152602001600020549050919050565b61118661386c565b61118f826120e2565b6111ce576040517f08c379a00000000000000000000000000000000000000000000000000000000081526004016111c5906147cc565b60405180910390fd5b600d60008381526020019081526020016000206040518060a00160405290816000820154815260200160018201805461120690614446565b80601f016020809104026020016040519081016040528092919081815260200182805461123290614446565b801561127f5780601f106112545761010080835404028352916020019161127f565b820191906000526020600020905b81548152906001019060200180831161126257829003601f168201915b505050505081526020016002820160009054906101000a900473ffffffffffffffffffffffffffffffffffffffff1673ffffffffffffffffffffffffffffffffffffffff1673ffffffffffffffffffffffffffffffffffffffff1681526020016002820160149054906101000a900460ff161515151581526020016003820154815250509050919050565b6000600a600084815260200190815260200160002060000160008373ffffffffffffffffffffffffffffffffffffffff1673ffffffffffffffffffffffffffffffffffffffff16815260200190815260200160002060009054906101000a900460ff16905092915050565b60606001805461138490614446565b80601f01602080910402602001604051908101604052809291908181526020018280546113b090614446565b80156113fd5780601f106113d2576101008083540402835291602001916113fd565b820191906000526020600020905b8154815290600101906020018083116113e057829003601f168201915b5050505050905090565b6000801b81565b611420611419611abc565b83836123e1565b5050565b61143561142f611abc565b83611b7d565b611474576040517f08c379a000000000000000000000000000000000000000000000000000000000815260040161146b9061460d565b60405180910390fd5b6114808484848461254d565b50505050565b60606000806000611497600b61239f565b905060006114a5600c61239f565b90508087106114e9576040517f08c379a00000000000000000000000000000000000000000000000000000000081526004016114e090614e35565b60405180910390fd5b6000861161152c576040517f08c379a000000000000000000000000000000000000000000000000000000000815260040161152390614ea1565b60405180910390fd5b6000821161156f576040517f08c379a000000000000000000000000000000000000000000000000000000000815260040161156690614f0d565b60405180910390fd5b600060018761157e9190614887565b905060008167ffffffffffffffff81111561159c5761159b613cf8565b5b6040519080825280602002602001820160405280156115d557816020015b6115c261386c565b8152602001906001900390816115ba5790505b5090506000805b85811015611776576115ed816120e2565b15611763578a811061176357600d60008281526020019081526020016000206040518060a00160405290816000820154815260200160018201805461163190614446565b80601f016020809104026020016040519081016040528092919081815260200182805461165d90614446565b80156116aa5780601f1061167f576101008083540402835291602001916116aa565b820191906000526020600020905b81548152906001019060200180831161168d57829003601f168201915b505050505081526020016002820160009054906101000a900473ffffffffffffffffffffffffffffffffffffffff1673ffffffffffffffffffffffffffffffffffffffff1673ffffffffffffffffffffffffffffffffffffffff1681526020016002820160149054906101000a900460ff1615151515815260200160038201548152505083838151811061174157611740614751565b5b60200260200101819052508180611757906148bb565b92505083820315611776575b808061176e906148bb565b9150506115dc565b5060008982116117865781611788565b895b905060008167ffffffffffffffff8111156117a6576117a5613cf8565b5b6040519080825280602002602001820160405280156117df57816020015b6117cc61386c565b8152602001906001900390816117c45790505b50905060005b8281101561183957848181518110611800576117ff614751565b5b602002602001015182828151811061181b5761181a614751565b5b60200260200101819052508080611831906148bb565b9150506117e5565b5060008b8411905060008161186e577fffffffffffffffffffffffffffffffffffffffffffffffffffffffffffffffff61187b565b838e61187a9190614887565b5b90508281839b509b509b505050505050505050509250925092565b60606118a182611a71565b60006118ab6125a9565b905060008151116118cb57604051806020016040528060008152506118f6565b806118d5846125c0565b6040516020016118e6929190614f69565b6040516020818303038152906040525b915050919050565b6000611909826120e2565b611916576000905061193d565b600d600083815260200190815260200160002060020160149054906101000a900460ff1690505b919050565b61194b82610a25565b61195481611f0b565b61195e8383612000565b505050565b6000600560008473ffffffffffffffffffffffffffffffffffffffff1673ffffffffffffffffffffffffffffffffffffffff16815260200190815260200160002060008373ffffffffffffffffffffffffffffffffffffffff1673ffffffffffffffffffffffffffffffffffffffff16815260200190815260200160002060009054906101000a900460ff16905092915050565b60007f7965db0b000000000000000000000000000000000000000000000000000000007bffffffffffffffffffffffffffffffffffffffffffffffffffffffff1916827bffffffffffffffffffffffffffffffffffffffffffffffffffffffff19161480611a6a5750611a698261268e565b5b9050919050565b611a7a816120e2565b611ab9576040517f08c379a0000000000000000000000000000000000000000000000000000000008152600401611ab090614a4d565b60405180910390fd5b50565b600033905090565b816004600083815260200190815260200160002060006101000a81548173ffffffffffffffffffffffffffffffffffffffff021916908373ffffffffffffffffffffffffffffffffffffffff160217905550808273ffffffffffffffffffffffffffffffffffffffff16611b3783610ec2565b73ffffffffffffffffffffffffffffffffffffffff167f8c5be1e5ebec7d5bd14f71427d1e84f3dd0314c0f7b2291e5b200ac8c7c3b92560405160405180910390a45050565b600080611b8983610ec2565b90508073ffffffffffffffffffffffffffffffffffffffff168473ffffffffffffffffffffffffffffffffffffffff161480611bcb5750611bca8185611963565b5b80611c0957508373ffffffffffffffffffffffffffffffffffffffff16611bf18461085b565b73ffffffffffffffffffffffffffffffffffffffff16145b91505092915050565b8273ffffffffffffffffffffffffffffffffffffffff16611c3282610ec2565b73ffffffffffffffffffffffffffffffffffffffff1614611c88576040517f08c379a0000000000000000000000000000000000000000000000000000000008152600401611c7f90614fff565b60405180910390fd5b600073ffffffffffffffffffffffffffffffffffffffff168273ffffffffffffffffffffffffffffffffffffffff1603611cf7576040517f08c379a0000000000000000000000000000000000000000000000000000000008152600401611cee90615091565b60405180910390fd5b611d048383836001612708565b8273ffffffffffffffffffffffffffffffffffffffff16611d2482610ec2565b73ffffffffffffffffffffffffffffffffffffffff1614611d7a576040517f08c379a0000000000000000000000000000000000000000000000000000000008152600401611d7190614fff565b60405180910390fd5b6004600082815260200190815260200160002060006101000a81549073ffffffffffffffffffffffffffffffffffffffff02191690556001600360008573ffffffffffffffffffffffffffffffffffffffff1673ffffffffffffffffffffffffffffffffffffffff168152602001908152602001600020600082825403925050819055506001600360008473ffffffffffffffffffffffffffffffffffffffff1673ffffffffffffffffffffffffffffffffffffffff16815260200190815260200160002060008282540192505081905550816002600083815260200190815260200160002060006101000a81548173ffffffffffffffffffffffffffffffffffffffff021916908373ffffffffffffffffffffffffffffffffffffffff160217905550808273ffffffffffffffffffffffffffffffffffffffff168473ffffffffffffffffffffffffffffffffffffffff167fddf252ad1be2c89b69c2b068fc378daa952ba7f163c4a11628f55a4df523b3ef60405160405180910390a4611f0683838360016127c0565b505050565b611f1c81611f17611abc565b6127c6565b50565b611f29828261130a565b611ffc576001600a600084815260200190815260200160002060000160008373ffffffffffffffffffffffffffffffffffffffff1673ffffffffffffffffffffffffffffffffffffffff16815260200190815260200160002060006101000a81548160ff021916908315150217905550611fa1611abc565b73ffffffffffffffffffffffffffffffffffffffff168173ffffffffffffffffffffffffffffffffffffffff16837f2f8788117e7eff1d82e926ec794901d17c78024a50270940304540a733656f0d60405160405180910390a45b5050565b61200a828261130a565b156120de576000600a600084815260200190815260200160002060000160008373ffffffffffffffffffffffffffffffffffffffff1673ffffffffffffffffffffffffffffffffffffffff16815260200190815260200160002060006101000a81548160ff021916908315150217905550612083611abc565b73ffffffffffffffffffffffffffffffffffffffff168173ffffffffffffffffffffffffffffffffffffffff16837ff6391f5c32d9c69d2a47ea670b442974b53935d1edc7fd64eb21e047a839171b60405160405180910390a45b5050565b60008073ffffffffffffffffffffffffffffffffffffffff1661210483612362565b73ffffffffffffffffffffffffffffffffffffffff1614159050919050565b61213361212e611abc565b610a45565b612172576040517f08c379a0000000000000000000000000000000000000000000000000000000008152600401612169906150fd565b60405180910390fd5b60005b81518110156121b4576121a182828151811061219457612193614751565b5b602002602001015161284b565b80806121ac906148bb565b915050612175565b5050565b60008160000154905060008111612204576040517f08c379a00000000000000000000000000000000000000000000000000000000081526004016121fb90615169565b60405180910390fd5b6001810382600001819055505050565b600061221f82610ec2565b905061222f816000846001612708565b61223882610ec2565b90506004600083815260200190815260200160002060006101000a81549073ffffffffffffffffffffffffffffffffffffffff02191690556001600360008373ffffffffffffffffffffffffffffffffffffffff1673ffffffffffffffffffffffffffffffffffffffff168152602001908152602001600020600082825403925050819055506002600083815260200190815260200160002060006101000a81549073ffffffffffffffffffffffffffffffffffffffff021916905581600073ffffffffffffffffffffffffffffffffffffffff168273ffffffffffffffffffffffffffffffffffffffff167fddf252ad1be2c89b69c2b068fc378daa952ba7f163c4a11628f55a4df523b3ef60405160405180910390a461235e8160008460016127c0565b5050565b60006002600083815260200190815260200160002060009054906101000a900473ffffffffffffffffffffffffffffffffffffffff169050919050565b600081600001549050919050565b6001816000016000828254019250508190555050565b6123dd828260405180602001604052806000815250612978565b5050565b8173ffffffffffffffffffffffffffffffffffffffff168373ffffffffffffffffffffffffffffffffffffffff160361244f576040517f08c379a0000000000000000000000000000000000000000000000000000000008152600401612446906151d5565b60405180910390fd5b80600560008573ffffffffffffffffffffffffffffffffffffffff1673ffffffffffffffffffffffffffffffffffffffff16815260200190815260200160002060008473ffffffffffffffffffffffffffffffffffffffff1673ffffffffffffffffffffffffffffffffffffffff16815260200190815260200160002060006101000a81548160ff0219169083151502179055508173ffffffffffffffffffffffffffffffffffffffff168373ffffffffffffffffffffffffffffffffffffffff167f17307eab39ab6107e8899845ad3d59bd9653f200f220920489ca2b5937696c31836040516125409190613984565b60405180910390a3505050565b612558848484611c12565b612564848484846129d3565b6125a3576040517f08c379a000000000000000000000000000000000000000000000000000000000815260040161259a90615267565b60405180910390fd5b50505050565b606060405180602001604052806000815250905090565b6060600060016125cf84612b5a565b01905060008167ffffffffffffffff8111156125ee576125ed613cf8565b5b6040519080825280601f01601f1916602001820160405280156126205781602001600182028036833780820191505090505b509050600082602001820190505b600115612683578080600190039150507f3031323334353637383961626364656600000000000000000000000000000000600a86061a8153600a858161267757612676615287565b5b0494506000850361262e575b819350505050919050565b60007f780e9d63000000000000000000000000000000000000000000000000000000007bffffffffffffffffffffffffffffffffffffffffffffffffffffffff1916827bffffffffffffffffffffffffffffffffffffffffffffffffffffffff19161480612701575061270082612cad565b5b9050919050565b600073ffffffffffffffffffffffffffffffffffffffff168473ffffffffffffffffffffffffffffffffffffffff16148061276f5750600073ffffffffffffffffffffffffffffffffffffffff168373ffffffffffffffffffffffffffffffffffffffff16145b6127ae576040517f08c379a00000000000000000000000000000000000000000000000000000000081526004016127a590615302565b60405180910390fd5b6127ba84848484612d8f565b50505050565b50505050565b6127d0828261130a565b612847576127dd81612eed565b6127eb8360001c6020612f1a565b6040516020016127fc9291906153ba565b6040516020818303038152906040526040517f08c379a000000000000000000000000000000000000000000000000000000000815260040161283e9190613a2f565b60405180910390fd5b5050565b61285b612856611abc565b610a45565b61289a576040517f08c379a0000000000000000000000000000000000000000000000000000000008152600401612891906150fd565b60405180910390fd5b6128a3816120e2565b6128e2576040517f08c379a00000000000000000000000000000000000000000000000000000000081526004016128d9906147cc565b60405180910390fd5b600d600082815260200190815260200160002060020160149054906101000a900460ff1615612946576040517f08c379a000000000000000000000000000000000000000000000000000000000815260040161293d90614838565b60405180910390fd5b6001600d600083815260200190815260200160002060020160146101000a81548160ff02191690831515021790555050565b6129828383613156565b61298f60008484846129d3565b6129ce576040517f08c379a00000000000000000000000000000000000000000000000000000000081526004016129c590615267565b60405180910390fd5b505050565b60006129f48473ffffffffffffffffffffffffffffffffffffffff16613373565b15612b4d578373ffffffffffffffffffffffffffffffffffffffff1663150b7a02612a1d611abc565b8786866040518563ffffffff1660e01b8152600401612a3f9493929190615449565b6020604051808303816000875af1925050508015612a7b57506040513d601f19601f82011682018060405250810190612a7891906154aa565b60015b612afd573d8060008114612aab576040519150601f19603f3d011682016040523d82523d6000602084013e612ab0565b606091505b506000815103612af5576040517f08c379a0000000000000000000000000000000000000000000000000000000008152600401612aec90615267565b60405180910390fd5b805181602001fd5b63150b7a0260e01b7bffffffffffffffffffffffffffffffffffffffffffffffffffffffff1916817bffffffffffffffffffffffffffffffffffffffffffffffffffffffff191614915050612b52565b600190505b949350505050565b600080600090507a184f03e93ff9f4daa797ed6e38ed64bf6a1f0100000000000000008310612bb8577a184f03e93ff9f4daa797ed6e38ed64bf6a1f0100000000000000008381612bae57612bad615287565b5b0492506040810190505b6d04ee2d6d415b85acef81000000008310612bf5576d04ee2d6d415b85acef81000000008381612beb57612bea615287565b5b0492506020810190505b662386f26fc100008310612c2457662386f26fc100008381612c1a57612c19615287565b5b0492506010810190505b6305f5e1008310612c4d576305f5e1008381612c4357612c42615287565b5b0492506008810190505b6127108310612c72576127108381612c6857612c67615287565b5b0492506004810190505b60648310612c955760648381612c8b57612c8a615287565b5b0492506002810190505b600a8310612ca4576001810190505b80915050919050565b60007f80ac58cd000000000000000000000000000000000000000000000000000000007bffffffffffffffffffffffffffffffffffffffffffffffffffffffff1916827bffffffffffffffffffffffffffffffffffffffffffffffffffffffff19161480612d7857507f5b5e139f000000000000000000000000000000000000000000000000000000007bffffffffffffffffffffffffffffffffffffffffffffffffffffffff1916827bffffffffffffffffffffffffffffffffffffffffffffffffffffffff1916145b80612d885750612d8782613396565b5b9050919050565b612d9b84848484613400565b6001811115612ddf576040517f08c379a0000000000000000000000000000000000000000000000000000000008152600401612dd690615549565b60405180910390fd5b6000829050600073ffffffffffffffffffffffffffffffffffffffff168573ffffffffffffffffffffffffffffffffffffffff1603612e2657612e2181613526565b612e65565b8373ffffffffffffffffffffffffffffffffffffffff168573ffffffffffffffffffffffffffffffffffffffff1614612e6457612e63858261356f565b5b5b600073ffffffffffffffffffffffffffffffffffffffff168473ffffffffffffffffffffffffffffffffffffffff1603612ea757612ea2816136dc565b612ee6565b8473ffffffffffffffffffffffffffffffffffffffff168473ffffffffffffffffffffffffffffffffffffffff1614612ee557612ee484826137ad565b5b5b5050505050565b6060612f138273ffffffffffffffffffffffffffffffffffffffff16601460ff16612f1a565b9050919050565b606060006002836002612f2d9190615569565b612f379190614887565b67ffffffffffffffff811115612f5057612f4f613cf8565b5b6040519080825280601f01601f191660200182016040528015612f825781602001600182028036833780820191505090505b5090507f300000000000000000000000000000000000000000000000000000000000000081600081518110612fba57612fb9614751565b5b60200101907effffffffffffffffffffffffffffffffffffffffffffffffffffffffffffff1916908160001a9053507f78000000000000000000000000000000000000000000000000000000000000008160018151811061301e5761301d614751565b5b60200101907effffffffffffffffffffffffffffffffffffffffffffffffffffffffffffff1916908160001a9053506000600184600261305e9190615569565b6130689190614887565b90505b6001811115613108577f3031323334353637383961626364656600000000000000000000000000000000600f8616601081106130aa576130a9614751565b5b1a60f81b8282815181106130c1576130c0614751565b5b60200101907effffffffffffffffffffffffffffffffffffffffffffffffffffffffffffff1916908160001a905350600485901c945080613101906155ab565b905061306b565b506000841461314c576040517f08c379a000000000000000000000000000000000000000000000000000000000815260040161314390615620565b60405180910390fd5b8091505092915050565b600073ffffffffffffffffffffffffffffffffffffffff168273ffffffffffffffffffffffffffffffffffffffff16036131c5576040517f08c379a00000000000000000000000000000000000000000000000000000000081526004016131bc9061568c565b60405180910390fd5b6131ce816120e2565b1561320e576040517f08c379a0000000000000000000000000000000000000000000000000000000008152600401613205906156f8565b60405180910390fd5b61321c600083836001612708565b613225816120e2565b15613265576040517f08c379a000000000000000000000000000000000000000000000000000000000815260040161325c906156f8565b60405180910390fd5b6001600360008473ffffffffffffffffffffffffffffffffffffffff1673ffffffffffffffffffffffffffffffffffffffff16815260200190815260200160002060008282540192505081905550816002600083815260200190815260200160002060006101000a81548173ffffffffffffffffffffffffffffffffffffffff021916908373ffffffffffffffffffffffffffffffffffffffff160217905550808273ffffffffffffffffffffffffffffffffffffffff16600073ffffffffffffffffffffffffffffffffffffffff167fddf252ad1be2c89b69c2b068fc378daa952ba7f163c4a11628f55a4df523b3ef60405160405180910390a461336f6000838360016127c0565b5050565b6000808273ffffffffffffffffffffffffffffffffffffffff163b119050919050565b60007f01ffc9a7000000000000000000000000000000000000000000000000000000007bffffffffffffffffffffffffffffffffffffffffffffffffffffffff1916827bffffffffffffffffffffffffffffffffffffffffffffffffffffffff1916149050919050565b600181111561352057600073ffffffffffffffffffffffffffffffffffffffff168473ffffffffffffffffffffffffffffffffffffffff16146134945780600360008673ffffffffffffffffffffffffffffffffffffffff1673ffffffffffffffffffffffffffffffffffffffff168152602001908152602001600020600082825461348c9190615718565b925050819055505b600073ffffffffffffffffffffffffffffffffffffffff168373ffffffffffffffffffffffffffffffffffffffff161461351f5780600360008573ffffffffffffffffffffffffffffffffffffffff1673ffffffffffffffffffffffffffffffffffffffff16815260200190815260200160002060008282546135179190614887565b925050819055505b5b50505050565b6008805490506009600083815260200190815260200160002081905550600881908060018154018082558091505060019003906000526020600020016000909190919091505550565b6000600161357c846110c7565b6135869190615718565b905060006007600084815260200190815260200160002054905081811461366b576000600660008673ffffffffffffffffffffffffffffffffffffffff1673ffffffffffffffffffffffffffffffffffffffff168152602001908152602001600020600084815260200190815260200160002054905080600660008773ffffffffffffffffffffffffffffffffffffffff1673ffffffffffffffffffffffffffffffffffffffff168152602001908152602001600020600084815260200190815260200160002081905550816007600083815260200190815260200160002081905550505b6007600084815260200190815260200160002060009055600660008573ffffffffffffffffffffffffffffffffffffffff1673ffffffffffffffffffffffffffffffffffffffff16815260200190815260200160002060008381526020019081526020016000206000905550505050565b600060016008805490506136f09190615718565b90506000600960008481526020019081526020016000205490506000600883815481106137205761371f614751565b5b90600052602060002001549050806008838154811061374257613741614751565b5b9060005260206000200181905550816009600083815260200190815260200160002081905550600960008581526020019081526020016000206000905560088054806137915761379061574c565b5b6001900381819060005260206000200160009055905550505050565b60006137b8836110c7565b905081600660008573ffffffffffffffffffffffffffffffffffffffff1673ffffffffffffffffffffffffffffffffffffffff168152602001908152602001600020600083815260200190815260200160002081905550806007600084815260200190815260200160002081905550505050565b50805461383890614446565b6000825580601f1061384a5750613869565b601f01602090049060005260206000209081019061386891906138b3565b5b50565b6040518060a001604052806000815260200160608152602001600073ffffffffffffffffffffffffffffffffffffffff168152602001600015158152602001600081525090565b5b808211156138cc5760008160009055506001016138b4565b5090565b6000604051905090565b600080fd5b600080fd5b60007fffffffff0000000000000000000000000000000000000000000000000000000082169050919050565b613919816138e4565b811461392457600080fd5b50565b60008135905061393681613910565b92915050565b600060208284031215613952576139516138da565b5b600061396084828501613927565b91505092915050565b60008115159050919050565b61397e81613969565b82525050565b60006020820190506139996000830184613975565b92915050565b600081519050919050565b600082825260208201905092915050565b60005b838110156139d95780820151818401526020810190506139be565b60008484015250505050565b6000601f19601f8301169050919050565b6000613a018261399f565b613a0b81856139aa565b9350613a1b8185602086016139bb565b613a24816139e5565b840191505092915050565b60006020820190508181036000830152613a4981846139f6565b905092915050565b6000819050919050565b613a6481613a51565b8114613a6f57600080fd5b50565b600081359050613a8181613a5b565b92915050565b600060208284031215613a9d57613a9c6138da565b5b6000613aab84828501613a72565b91505092915050565b600073ffffffffffffffffffffffffffffffffffffffff82169050919050565b6000613adf82613ab4565b9050919050565b613aef81613ad4565b82525050565b6000602082019050613b0a6000830184613ae6565b92915050565b613b1981613ad4565b8114613b2457600080fd5b50565b600081359050613b3681613b10565b92915050565b60008060408385031215613b5357613b526138da565b5b6000613b6185828601613b27565b9250506020613b7285828601613a72565b9150509250929050565b613b8581613a51565b82525050565b6000602082019050613ba06000830184613b7c565b92915050565b600080600060608486031215613bbf57613bbe6138da565b5b6000613bcd86828701613b27565b9350506020613bde86828701613b27565b9250506040613bef86828701613a72565b9150509250925092565b6000819050919050565b613c0c81613bf9565b8114613c1757600080fd5b50565b600081359050613c2981613c03565b92915050565b600060208284031215613c4557613c446138da565b5b6000613c5384828501613c1a565b91505092915050565b613c6581613bf9565b82525050565b6000602082019050613c806000830184613c5c565b92915050565b600060208284031215613c9c57613c9b6138da565b5b6000613caa84828501613b27565b91505092915050565b60008060408385031215613cca57613cc96138da565b5b6000613cd885828601613c1a565b9250506020613ce985828601613b27565b9150509250929050565b600080fd5b7f4e487b7100000000000000000000000000000000000000000000000000000000600052604160045260246000fd5b613d30826139e5565b810181811067ffffffffffffffff82111715613d4f57613d4e613cf8565b5b80604052505050565b6000613d626138d0565b9050613d6e8282613d27565b919050565b600067ffffffffffffffff821115613d8e57613d8d613cf8565b5b602082029050602081019050919050565b600080fd5b6000613db7613db284613d73565b613d58565b90508083825260208201905060208402830185811115613dda57613dd9613d9f565b5b835b81811015613e035780613def8882613a72565b845260208401935050602081019050613ddc565b5050509392505050565b600082601f830112613e2257613e21613cf3565b5b8135613e32848260208601613da4565b91505092915050565b600060208284031215613e5157613e506138da565b5b600082013567ffffffffffffffff811115613e6f57613e6e6138df565b5b613e7b84828501613e0d565b91505092915050565b600080fd5b600067ffffffffffffffff821115613ea457613ea3613cf8565b5b613ead826139e5565b9050602081019050919050565b82818337600083830152505050565b6000613edc613ed784613e89565b613d58565b905082815260208101848484011115613ef857613ef7613e84565b5b613f03848285613eba565b509392505050565b600082601f830112613f2057613f1f613cf3565b5b8135613f30848260208601613ec9565b91505092915050565b600060208284031215613f4f57613f4e6138da565b5b600082013567ffffffffffffffff811115613f6d57613f6c6138df565b5b613f7984828501613f0b565b91505092915050565b613f8b81613a51565b82525050565b600082825260208201905092915050565b6000613fad8261399f565b613fb78185613f91565b9350613fc78185602086016139bb565b613fd0816139e5565b840191505092915050565b613fe481613ad4565b82525050565b613ff381613969565b82525050565b600060a0830160008301516140116000860182613f82565b50602083015184820360208601526140298282613fa2565b915050604083015161403e6040860182613fdb565b5060608301516140516060860182613fea565b5060808301516140646080860182613f82565b508091505092915050565b600060208201905081810360008301526140898184613ff9565b905092915050565b61409a81613969565b81146140a557600080fd5b50565b6000813590506140b781614091565b92915050565b600080604083850312156140d4576140d36138da565b5b60006140e285828601613b27565b92505060206140f3858286016140a8565b9150509250929050565b600067ffffffffffffffff82111561411857614117613cf8565b5b614121826139e5565b9050602081019050919050565b600061414161413c846140fd565b613d58565b90508281526020810184848401111561415d5761415c613e84565b5b614168848285613eba565b509392505050565b600082601f83011261418557614184613cf3565b5b813561419584826020860161412e565b91505092915050565b600080600080608085870312156141b8576141b76138da565b5b60006141c687828801613b27565b94505060206141d787828801613b27565b93505060406141e887828801613a72565b925050606085013567ffffffffffffffff811115614209576142086138df565b5b61421587828801614170565b91505092959194509250565b60008060408385031215614238576142376138da565b5b600061424685828601613a72565b925050602061425785828601613a72565b9150509250929050565b600081519050919050565b600082825260208201905092915050565b6000819050602082019050919050565b600060a0830160008301516142a56000860182613f82565b50602083015184820360208601526142bd8282613fa2565b91505060408301516142d26040860182613fdb565b5060608301516142e56060860182613fea565b5060808301516142f86080860182613f82565b508091505092915050565b600061430f838361428d565b905092915050565b6000602082019050919050565b600061432f82614261565b614339818561426c565b93508360208202850161434b8561427d565b8060005b8581101561438757848403895281516143688582614303565b945061437383614317565b925060208a0199505060018101905061434f565b50829750879550505050505092915050565b600060608201905081810360008301526143b38186614324565b90506143c26020830185613b7c565b6143cf6040830184613975565b949350505050565b600080604083850312156143ee576143ed6138da565b5b60006143fc85828601613b27565b925050602061440d85828601613b27565b9150509250929050565b7f4e487b7100000000000000000000000000000000000000000000000000000000600052602260045260246000fd5b6000600282049050600182168061445e57607f821691505b60208210810361447157614470614417565b5b50919050565b7f4552433732313a20617070726f76616c20746f2063757272656e74206f776e6560008201527f7200000000000000000000000000000000000000000000000000000000000000602082015250565b60006144d36021836139aa565b91506144de82614477565b604082019050919050565b60006020820190508181036000830152614502816144c6565b9050919050565b7f4552433732313a20617070726f76652063616c6c6572206973206e6f7420746f60008201527f6b656e206f776e6572206f7220617070726f76656420666f7220616c6c000000602082015250565b6000614565603d836139aa565b915061457082614509565b604082019050919050565b6000602082019050818103600083015261459481614558565b9050919050565b7f4552433732313a2063616c6c6572206973206e6f7420746f6b656e206f776e6560008201527f72206f7220617070726f76656400000000000000000000000000000000000000602082015250565b60006145f7602d836139aa565b91506146028261459b565b604082019050919050565b60006020820190508181036000830152614626816145ea565b9050919050565b7f455243373231456e756d657261626c653a206f776e657220696e646578206f7560008201527f74206f6620626f756e6473000000000000000000000000000000000000000000602082015250565b6000614689602b836139aa565b91506146948261462d565b604082019050919050565b600060208201905081810360008301526146b88161467c565b9050919050565b7f416363657373436f6e74726f6c3a2063616e206f6e6c792072656e6f756e636560008201527f20726f6c657320666f722073656c660000000000000000000000000000000000602082015250565b600061471b602f836139aa565b9150614726826146bf565b604082019050919050565b6000602082019050818103600083015261474a8161470e565b9050919050565b7f4e487b7100000000000000000000000000000000000000000000000000000000600052603260045260246000fd5b7f546f6b656e20646f6573206e6f74206578697374000000000000000000000000600082015250565b60006147b66014836139aa565b91506147c182614780565b602082019050919050565b600060208201905081810360008301526147e5816147a9565b9050919050565b7f546f6b656e20697320616c726561647920646563727970746564000000000000600082015250565b6000614822601a836139aa565b915061482d826147ec565b602082019050919050565b6000602082019050818103600083015261485181614815565b9050919050565b7f4e487b7100000000000000000000000000000000000000000000000000000000600052601160045260246000fd5b600061489282613a51565b915061489d83613a51565b92508282019050808211156148b5576148b4614858565b5b92915050565b60006148c682613a51565b91507fffffffffffffffffffffffffffffffffffffffffffffffffffffffffffffffff82036148f8576148f7614858565b5b600182019050919050565b7f496e73756666696369656e742066756e64730000000000000000000000000000600082015250565b60006149396012836139aa565b915061494482614903565b602082019050919050565b600060208201905081810360008301526149688161492c565b9050919050565b7f455243373231456e756d657261626c653a20676c6f62616c20696e646578206f60008201527f7574206f6620626f756e64730000000000000000000000000000000000000000602082015250565b60006149cb602c836139aa565b91506149d68261496f565b604082019050919050565b600060208201905081810360008301526149fa816149be565b9050919050565b7f4552433732313a20696e76616c696420746f6b656e2049440000000000000000600082015250565b6000614a376018836139aa565b9150614a4282614a01565b602082019050919050565b60006020820190508181036000830152614a6681614a2a565b9050919050565b7f4f6e6c7920312053425420706572206164647265737320616c6c6f7765640000600082015250565b6000614aa3601e836139aa565b9150614aae82614a6d565b602082019050919050565b60006020820190508181036000830152614ad281614a96565b9050919050565b60008190508160005260206000209050919050565b60006020601f8301049050919050565b600082821b905092915050565b600060088302614b3b7fffffffffffffffffffffffffffffffffffffffffffffffffffffffffffffffff82614afe565b614b458683614afe565b95508019841693508086168417925050509392505050565b6000819050919050565b6000614b82614b7d614b7884613a51565b614b5d565b613a51565b9050919050565b6000819050919050565b614b9c83614b67565b614bb0614ba882614b89565b848454614b0b565b825550505050565b600090565b614bc5614bb8565b614bd0818484614b93565b505050565b5b81811015614bf457614be9600082614bbd565b600181019050614bd6565b5050565b601f821115614c3957614c0a81614ad9565b614c1384614aee565b81016020851015614c22578190505b614c36614c2e85614aee565b830182614bd5565b50505b505050565b600082821c905092915050565b6000614c5c60001984600802614c3e565b1980831691505092915050565b6000614c758383614c4b565b9150826002028217905092915050565b614c8e8261399f565b67ffffffffffffffff811115614ca757614ca6613cf8565b5b614cb18254614446565b614cbc828285614bf8565b600060209050601f831160018114614cef5760008415614cdd578287015190505b614ce78582614c69565b865550614d4f565b601f198416614cfd86614ad9565b60005b82811015614d2557848901518255600182019150602085019450602081019050614d00565b86831015614d425784890151614d3e601f891682614c4b565b8355505b6001600288020188555050505b505050505050565b7f4552433732313a2061646472657373207a65726f206973206e6f74206120766160008201527f6c6964206f776e65720000000000000000000000000000000000000000000000602082015250565b6000614db36029836139aa565b9150614dbe82614d57565b604082019050919050565b60006020820190508181036000830152614de281614da6565b9050919050565b7f437572736f72206973206f7574206f6620626f756e6473000000000000000000600082015250565b6000614e1f6017836139aa565b9150614e2a82614de9565b602082019050919050565b60006020820190508181036000830152614e4e81614e12565b9050919050565b7f506167652073697a65206d7573742062652067726561746572207468616e2030600082015250565b6000614e8b6020836139aa565b9150614e9682614e55565b602082019050919050565b60006020820190508181036000830152614eba81614e7e565b9050919050565b7f4e6f20746f6b656e732065786973740000000000000000000000000000000000600082015250565b6000614ef7600f836139aa565b9150614f0282614ec1565b602082019050919050565b60006020820190508181036000830152614f2681614eea565b9050919050565b600081905092915050565b6000614f438261399f565b614f4d8185614f2d565b9350614f5d8185602086016139bb565b80840191505092915050565b6000614f758285614f38565b9150614f818284614f38565b91508190509392505050565b7f4552433732313a207472616e736665722066726f6d20696e636f72726563742060008201527f6f776e6572000000000000000000000000000000000000000000000000000000602082015250565b6000614fe96025836139aa565b9150614ff482614f8d565b604082019050919050565b6000602082019050818103600083015261501881614fdc565b9050919050565b7f4552433732313a207472616e7366657220746f20746865207a65726f2061646460008201527f7265737300000000000000000000000000000000000000000000000000000000602082015250565b600061507b6024836139aa565b91506150868261501f565b604082019050919050565b600060208201905081810360008301526150aa8161506e565b9050919050565b7f43616c6c6572206973206e6f7420616e2061646d696e00000000000000000000600082015250565b60006150e76016836139aa565b91506150f2826150b1565b602082019050919050565b60006020820190508181036000830152615116816150da565b9050919050565b7f436f756e7465723a2064656372656d656e74206f766572666c6f770000000000600082015250565b6000615153601b836139aa565b915061515e8261511d565b602082019050919050565b6000602082019050818103600083015261518281615146565b9050919050565b7f4552433732313a20617070726f766520746f2063616c6c657200000000000000600082015250565b60006151bf6019836139aa565b91506151ca82615189565b602082019050919050565b600060208201905081810360008301526151ee816151b2565b9050919050565b7f4552433732313a207472616e7366657220746f206e6f6e20455243373231526560008201527f63656976657220696d706c656d656e7465720000000000000000000000000000602082015250565b60006152516032836139aa565b915061525c826151f5565b604082019050919050565b6000602082019050818103600083015261528081615244565b9050919050565b7f4e487b7100000000000000000000000000000000000000000000000000000000600052601260045260246000fd5b7f54686973206120736f756c626f756e6420746f6b656e00000000000000000000600082015250565b60006152ec6016836139aa565b91506152f7826152b6565b602082019050919050565b6000602082019050818103600083015261531b816152df565b9050919050565b7f416363657373436f6e74726f6c3a206163636f756e7420000000000000000000600082015250565b6000615358601783614f2d565b915061536382615322565b601782019050919050565b7f206973206d697373696e6720726f6c6520000000000000000000000000000000600082015250565b60006153a4601183614f2d565b91506153af8261536e565b601182019050919050565b60006153c58261534b565b91506153d18285614f38565b91506153dc82615397565b91506153e88284614f38565b91508190509392505050565b600081519050919050565b600082825260208201905092915050565b600061541b826153f4565b61542581856153ff565b93506154358185602086016139bb565b61543e816139e5565b840191505092915050565b600060808201905061545e6000830187613ae6565b61546b6020830186613ae6565b6154786040830185613b7c565b818103606083015261548a8184615410565b905095945050505050565b6000815190506154a481613910565b92915050565b6000602082840312156154c0576154bf6138da565b5b60006154ce84828501615495565b91505092915050565b7f455243373231456e756d657261626c653a20636f6e736563757469766520747260008201527f616e7366657273206e6f7420737570706f727465640000000000000000000000602082015250565b60006155336035836139aa565b915061553e826154d7565b604082019050919050565b6000602082019050818103600083015261556281615526565b9050919050565b600061557482613a51565b915061557f83613a51565b925082820261558d81613a51565b915082820484148315176155a4576155a3614858565b5b5092915050565b60006155b682613a51565b9150600082036155c9576155c8614858565b5b600182039050919050565b7f537472696e67733a20686578206c656e67746820696e73756666696369656e74600082015250565b600061560a6020836139aa565b9150615615826155d4565b602082019050919050565b60006020820190508181036000830152615639816155fd565b9050919050565b7f4552433732313a206d696e7420746f20746865207a65726f2061646472657373600082015250565b60006156766020836139aa565b915061568182615640565b602082019050919050565b600060208201905081810360008301526156a581615669565b9050919050565b7f4552433732313a20746f6b656e20616c7265616479206d696e74656400000000600082015250565b60006156e2601c836139aa565b91506156ed826156ac565b602082019050919050565b60006020820190508181036000830152615711816156d5565b9050919050565b600061572382613a51565b915061572e83613a51565b925082820390508181111561574657615745614858565b5b92915050565b7f4e487b7100000000000000000000000000000000000000000000000000000000600052603160045260246000fdfea2646970667358221220175058c5759b9bf2e3d8f1897eeea214b7c21464e92a4050d538a031776df70664736f6c63430008110033",
  "devdoc": {
    "kind": "dev",
    "methods": {
      "approve(address,uint256)": {
        "details": "See {IERC721-approve}."
      },
      "balanceOf(address)": {
        "details": "See {IERC721-balanceOf}."
      },
      "getApproved(uint256)": {
        "details": "See {IERC721-getApproved}."
      },
      "getRoleAdmin(bytes32)": {
        "details": "Returns the admin role that controls `role`. See {grantRole} and {revokeRole}. To change a role's admin, use {_setRoleAdmin}."
      },
      "grantRole(bytes32,address)": {
        "details": "Grants `role` to `account`. If `account` had not been already granted `role`, emits a {RoleGranted} event. Requirements: - the caller must have ``role``'s admin role. May emit a {RoleGranted} event."
      },
      "hasRole(bytes32,address)": {
        "details": "Returns `true` if `account` has been granted `role`."
      },
      "isApprovedForAll(address,address)": {
        "details": "See {IERC721-isApprovedForAll}."
      },
      "name()": {
        "details": "See {IERC721Metadata-name}."
      },
      "ownerOf(uint256)": {
        "details": "See {IERC721-ownerOf}."
      },
      "renounceRole(bytes32,address)": {
        "details": "Revokes `role` from the calling account. Roles are often managed via {grantRole} and {revokeRole}: this function's purpose is to provide a mechanism for accounts to lose their privileges if they are compromised (such as when a trusted device is misplaced). If the calling account had been revoked `role`, emits a {RoleRevoked} event. Requirements: - the caller must be `account`. May emit a {RoleRevoked} event."
      },
      "revokeRole(bytes32,address)": {
        "details": "Revokes `role` from `account`. If `account` had been granted `role`, emits a {RoleRevoked} event. Requirements: - the caller must have ``role``'s admin role. May emit a {RoleRevoked} event."
      },
      "safeTransferFrom(address,address,uint256)": {
        "details": "See {IERC721-safeTransferFrom}."
      },
      "safeTransferFrom(address,address,uint256,bytes)": {
        "details": "See {IERC721-safeTransferFrom}."
      },
      "setApprovalForAll(address,bool)": {
        "details": "See {IERC721-setApprovalForAll}."
      },
      "symbol()": {
        "details": "See {IERC721Metadata-symbol}."
      },
      "tokenByIndex(uint256)": {
        "details": "See {IERC721Enumerable-tokenByIndex}."
      },
      "tokenOfOwnerByIndex(address,uint256)": {
        "details": "See {IERC721Enumerable-tokenOfOwnerByIndex}."
      },
      "tokenURI(uint256)": {
        "details": "See {IERC721Metadata-tokenURI}."
      },
      "totalSupply()": {
        "details": "See {IERC721Enumerable-totalSupply}."
      },
      "transferFrom(address,address,uint256)": {
        "details": "See {IERC721-transferFrom}."
      }
    },
    "version": 1
  },
  "userdoc": {
    "kind": "user",
    "methods": {},
    "version": 1
  },
  "storageLayout": {
    "storage": [
      {
        "astId": 414,
        "contract": "contracts/BasicFEVMDALN.sol:Basic_FEVM_DALN",
        "label": "_name",
        "offset": 0,
        "slot": "0",
        "type": "t_string_storage"
      },
      {
        "astId": 416,
        "contract": "contracts/BasicFEVMDALN.sol:Basic_FEVM_DALN",
        "label": "_symbol",
        "offset": 0,
        "slot": "1",
        "type": "t_string_storage"
      },
      {
        "astId": 420,
        "contract": "contracts/BasicFEVMDALN.sol:Basic_FEVM_DALN",
        "label": "_owners",
        "offset": 0,
        "slot": "2",
        "type": "t_mapping(t_uint256,t_address)"
      },
      {
        "astId": 424,
        "contract": "contracts/BasicFEVMDALN.sol:Basic_FEVM_DALN",
        "label": "_balances",
        "offset": 0,
        "slot": "3",
        "type": "t_mapping(t_address,t_uint256)"
      },
      {
        "astId": 428,
        "contract": "contracts/BasicFEVMDALN.sol:Basic_FEVM_DALN",
        "label": "_tokenApprovals",
        "offset": 0,
        "slot": "4",
        "type": "t_mapping(t_uint256,t_address)"
      },
      {
        "astId": 434,
        "contract": "contracts/BasicFEVMDALN.sol:Basic_FEVM_DALN",
        "label": "_operatorApprovals",
        "offset": 0,
        "slot": "5",
        "type": "t_mapping(t_address,t_mapping(t_address,t_bool))"
      },
      {
        "astId": 1482,
        "contract": "contracts/BasicFEVMDALN.sol:Basic_FEVM_DALN",
        "label": "_ownedTokens",
        "offset": 0,
        "slot": "6",
        "type": "t_mapping(t_address,t_mapping(t_uint256,t_uint256))"
      },
      {
        "astId": 1486,
        "contract": "contracts/BasicFEVMDALN.sol:Basic_FEVM_DALN",
        "label": "_ownedTokensIndex",
        "offset": 0,
        "slot": "7",
        "type": "t_mapping(t_uint256,t_uint256)"
      },
      {
        "astId": 1489,
        "contract": "contracts/BasicFEVMDALN.sol:Basic_FEVM_DALN",
        "label": "_allTokens",
        "offset": 0,
        "slot": "8",
        "type": "t_array(t_uint256)dyn_storage"
      },
      {
        "astId": 1493,
        "contract": "contracts/BasicFEVMDALN.sol:Basic_FEVM_DALN",
        "label": "_allTokensIndex",
        "offset": 0,
        "slot": "9",
        "type": "t_mapping(t_uint256,t_uint256)"
      },
      {
        "astId": 24,
        "contract": "contracts/BasicFEVMDALN.sol:Basic_FEVM_DALN",
        "label": "_roles",
        "offset": 0,
        "slot": "10",
        "type": "t_mapping(t_bytes32,t_struct(RoleData)19_storage)"
      },
      {
        "astId": 3416,
        "contract": "contracts/BasicFEVMDALN.sol:Basic_FEVM_DALN",
        "label": "_tokenIdTracker",
        "offset": 0,
        "slot": "11",
        "type": "t_struct(Counter)2237_storage"
      },
      {
        "astId": 3419,
        "contract": "contracts/BasicFEVMDALN.sol:Basic_FEVM_DALN",
        "label": "_activeTokensCount",
        "offset": 0,
        "slot": "12",
        "type": "t_struct(Counter)2237_storage"
      },
      {
        "astId": 3424,
        "contract": "contracts/BasicFEVMDALN.sol:Basic_FEVM_DALN",
        "label": "_tokenInfos",
        "offset": 0,
        "slot": "13",
        "type": "t_mapping(t_uint256,t_struct(TokenInfo)3413_storage)"
      }
    ],
    "types": {
      "t_address": {
        "encoding": "inplace",
        "label": "address",
        "numberOfBytes": "20"
      },
      "t_array(t_uint256)dyn_storage": {
        "base": "t_uint256",
        "encoding": "dynamic_array",
        "label": "uint256[]",
        "numberOfBytes": "32"
      },
      "t_bool": {
        "encoding": "inplace",
        "label": "bool",
        "numberOfBytes": "1"
      },
      "t_bytes32": {
        "encoding": "inplace",
        "label": "bytes32",
        "numberOfBytes": "32"
      },
      "t_mapping(t_address,t_bool)": {
        "encoding": "mapping",
        "key": "t_address",
        "label": "mapping(address => bool)",
        "numberOfBytes": "32",
        "value": "t_bool"
      },
      "t_mapping(t_address,t_mapping(t_address,t_bool))": {
        "encoding": "mapping",
        "key": "t_address",
        "label": "mapping(address => mapping(address => bool))",
        "numberOfBytes": "32",
        "value": "t_mapping(t_address,t_bool)"
      },
      "t_mapping(t_address,t_mapping(t_uint256,t_uint256))": {
        "encoding": "mapping",
        "key": "t_address",
        "label": "mapping(address => mapping(uint256 => uint256))",
        "numberOfBytes": "32",
        "value": "t_mapping(t_uint256,t_uint256)"
      },
      "t_mapping(t_address,t_uint256)": {
        "encoding": "mapping",
        "key": "t_address",
        "label": "mapping(address => uint256)",
        "numberOfBytes": "32",
        "value": "t_uint256"
      },
      "t_mapping(t_bytes32,t_struct(RoleData)19_storage)": {
        "encoding": "mapping",
        "key": "t_bytes32",
        "label": "mapping(bytes32 => struct AccessControl.RoleData)",
        "numberOfBytes": "32",
        "value": "t_struct(RoleData)19_storage"
      },
      "t_mapping(t_uint256,t_address)": {
        "encoding": "mapping",
        "key": "t_uint256",
        "label": "mapping(uint256 => address)",
        "numberOfBytes": "32",
        "value": "t_address"
      },
      "t_mapping(t_uint256,t_struct(TokenInfo)3413_storage)": {
        "encoding": "mapping",
        "key": "t_uint256",
        "label": "mapping(uint256 => struct Basic_FEVM_DALN.TokenInfo)",
        "numberOfBytes": "32",
        "value": "t_struct(TokenInfo)3413_storage"
      },
      "t_mapping(t_uint256,t_uint256)": {
        "encoding": "mapping",
        "key": "t_uint256",
        "label": "mapping(uint256 => uint256)",
        "numberOfBytes": "32",
        "value": "t_uint256"
      },
      "t_string_storage": {
        "encoding": "bytes",
        "label": "string",
        "numberOfBytes": "32"
      },
      "t_struct(Counter)2237_storage": {
        "encoding": "inplace",
        "label": "struct Counters.Counter",
        "members": [
          {
            "astId": 2236,
            "contract": "contracts/BasicFEVMDALN.sol:Basic_FEVM_DALN",
            "label": "_value",
            "offset": 0,
            "slot": "0",
            "type": "t_uint256"
          }
        ],
        "numberOfBytes": "32"
      },
      "t_struct(RoleData)19_storage": {
        "encoding": "inplace",
        "label": "struct AccessControl.RoleData",
        "members": [
          {
            "astId": 16,
            "contract": "contracts/BasicFEVMDALN.sol:Basic_FEVM_DALN",
            "label": "members",
            "offset": 0,
            "slot": "0",
            "type": "t_mapping(t_address,t_bool)"
          },
          {
            "astId": 18,
            "contract": "contracts/BasicFEVMDALN.sol:Basic_FEVM_DALN",
            "label": "adminRole",
            "offset": 0,
            "slot": "1",
            "type": "t_bytes32"
          }
        ],
        "numberOfBytes": "64"
      },
      "t_struct(TokenInfo)3413_storage": {
        "encoding": "inplace",
        "label": "struct Basic_FEVM_DALN.TokenInfo",
        "members": [
          {
            "astId": 3404,
            "contract": "contracts/BasicFEVMDALN.sol:Basic_FEVM_DALN",
            "label": "id",
            "offset": 0,
            "slot": "0",
            "type": "t_uint256"
          },
          {
            "astId": 3406,
            "contract": "contracts/BasicFEVMDALN.sol:Basic_FEVM_DALN",
            "label": "cid",
            "offset": 0,
            "slot": "1",
            "type": "t_string_storage"
          },
          {
            "astId": 3408,
            "contract": "contracts/BasicFEVMDALN.sol:Basic_FEVM_DALN",
            "label": "owner",
            "offset": 0,
            "slot": "2",
            "type": "t_address"
          },
          {
            "astId": 3410,
            "contract": "contracts/BasicFEVMDALN.sol:Basic_FEVM_DALN",
            "label": "isDecrypted",
            "offset": 20,
            "slot": "2",
            "type": "t_bool"
          },
          {
            "astId": 3412,
            "contract": "contracts/BasicFEVMDALN.sol:Basic_FEVM_DALN",
            "label": "price",
            "offset": 0,
            "slot": "3",
            "type": "t_uint256"
          }
        ],
        "numberOfBytes": "128"
      },
      "t_uint256": {
        "encoding": "inplace",
        "label": "uint256",
        "numberOfBytes": "32"
      }
    }
  }
}